411037080202403032024031200170079500103400706CUOTA     ARS0DAMA20240303INSTITUTO EDUCATIVO DAMASO VALDES   20                                                                                                                                             
421037080  00000000000000000006910140304403659950627640000000003516257               CUOTA 2024-0320240305  000000000000001                                                                                                                               
422037080  0000000000000000000691                      IGNACIO CORREA                                                                                                                                                                                     
423037080  0000000000000000000691                                                                                                                                                                                                                         
424037080  0000000000000000000691                           CUOTA 2024-03                                                                                                                                                                                 
421037080  00000000000000000003010140434403650553850592000000004156500               CUOTA 2024-0320240305  000000000000002                                                                                                                               
422037080  0000000000000000000301                       BENJAMIN DIAZ                                                                                                                                                                                     
423037080  0000000000000000000301                                                                                                                                                                                                                         
424037080  0000000000000000000301                           CUOTA 2024-03                                                                                                                                                                                 
421037080  00000000000000000005910170079440000073772862000000003516182               CUOTA 2024-0320240305  000000000000003                                                                                                                               
422037080  0000000000000000000591                RENATA NAIR MARTINEZ                                                                                                                                                                                     
423037080  0000000000000000000591                                                                                                                                                                                                                         
424037080  0000000000000000000591                           CUOTA 2024-03                                                                                                                                                                                 
421037080  00000000000000000003070170079440000076869330000000003445300               CUOTA 2024-0320240305  000000000000004                                                                                                                               
422037080  0000000000000000000307                         JOAQUN PE-A                                                                                                                                                                                     
423037080  0000000000000000000307                                                                                                                                                                                                                         
424037080  0000000000000000000307                           CUOTA 2024-03                                                                                                                                                                                 
421037080  00000000000000000006930170079440000077047144000000003445300               CUOTA 2024-0320240305  000000000000005                                                                                                                               
422037080  0000000000000000000693                 CARLOS MONZON COSTA                                                                                                                                                                                     
423037080  0000000000000000000693                                                                                                                                                                                                                         
424037080  0000000000000000000693                           CUOTA 2024-03                                                                                                                                                                                 
421037080  00000000000000000007810170079440000079047944000000003516280               CUOTA 2024-0320240305  000000000000006                                                                                                                               
422037080  0000000000000000000781               BIANCA YOSELIN VELOZO                                                                                                                                                                                     
423037080  0000000000000000000781                                                                                                                                                                                                                         
424037080  0000000000000000000781                           CUOTA 2024-03                                                                                                                                                                                 
421037080  00000000000000000008030170079440000079078926000000003516280               CUOTA 2024-0320240305  000000000000009                                                                                                                               
422037080  0000000000000000000803            FRANCESCA GIOVANNA MONTI                                                                                                                                                                                     
423037080  0000000000000000000803                                                                                                                                                                                                                         
424037080  0000000000000000000803                           CUOTA 2024-03                                                                                                                                                                                 
421037080  00000000000000000008030170079440000079078926000000003516280               CUOTA 2024-0320240305  000000000000008                                                                                                                               
422037080  0000000000000000000803                GIULIANO TOMAS MONTI                                                                                                                                                                                     
423037080  0000000000000000000803                                                                                                                                                                                                                         
424037080  0000000000000000000803                           CUOTA 2024-03                                                                                                                                                                                 
421037080  00000000000000000008030170079440000079078926000000003445300               CUOTA 2024-0320240305  000000000000007                                                                                                                               
422037080  0000000000000000000803                     .aterine  monti                                                                                                                                                                                     
423037080  0000000000000000000803                                                                                                                                                                                                                         
424037080  0000000000000000000803                           CUOTA 2024-03                                                                                                                                                                                 
421037080  00000000000000000008620170079440000079278012000000003516280               CUOTA 2024-0320240305  000000000000011                                                                                                                               
422037080  0000000000000000000862                CONSTANZA MARINZALDA                                                                                                                                                                                     
423037080  0000000000000000000862                                                                                                                                                                                                                         
424037080  0000000000000000000862                           CUOTA 2024-03                                                                                                                                                                                 
421037080  00000000000000000008620170079440000079278012000000003445300               CUOTA 2024-0320240305  000000000000010                                                                                                                               
422037080  0000000000000000000862                MARIA PAZ MARINZALDA                                                                                                                                                                                     
423037080  0000000000000000000862                                                                                                                                                                                                                         
424037080  0000000000000000000862                           CUOTA 2024-03                                                                                                                                                                                 
421037080  00000000000000000007880170079444000071577258000000003516280               CUOTA 2024-0320240305  000000000000012                                                                                                                               
422037080  0000000000000000000788            EZEQUIEL  CAMINOS MEDINA                                                                                                                                                                                     
423037080  0000000000000000000788                                                                                                                                                                                                                         
424037080  0000000000000000000788                           CUOTA 2024-03                                                                                                                                                                                 
491037080000000042551539000000120000000050                                                                                                                                                                                                                
