411037080202403012024032500170079500103400706CUOTA     ARS0DAMA20240301INSTITUTO EDUCATIVO DAMASO VALDES   20                                                                                                                                             
421037080  00000000000000000006910140304403659950627640000000003516257      CUOTA 2024-03         20240307  000000000000013                                                                                                                               
422037080  0000000000000000000691IGNACIO CORREA                                                                                                                                                                                                           
423037080  0000000000000000000691                                                                                                                                                                                                                         
424037080  0000000000000000000691                           CUOTA 2024-03                                                                                                                                                                                 
421037080  00000000000000000003010140434403650553850592000000004156500      CUOTA 2024-03         20240307  000000000000014                                                                                                                               
422037080  0000000000000000000301BENJAMIN DIAZ                                                                                                                                                                                                            
423037080  0000000000000000000301                                                                                                                                                                                                                         
424037080  0000000000000000000301                           CUOTA 2024-03                                                                                                                                                                                 
421037080  00000000000000000005910170079440000073772862000000003516182      CUOTA 2024-03         20240307  000000000000015                                                                                                                               
422037080  0000000000000000000591RENATA NAIR MARTINEZ                                                                                                                                                                                                     
423037080  0000000000000000000591                                                                                                                                                                                                                         
424037080  0000000000000000000591                           CUOTA 2024-03                                                                                                                                                                                 
421037080  00000000000000000003070170079440000076869330000000003445300      CUOTA 2024-03         20240307  000000000000016                                                                                                                               
422037080  0000000000000000000307JOAQUN PE-A                                                                                                                                                                                                              
423037080  0000000000000000000307                                                                                                                                                                                                                         
424037080  0000000000000000000307                           CUOTA 2024-03                                                                                                                                                                                 
421037080  00000000000000000006930170079440000077047144000000003445300      CUOTA 2024-03         20240307  000000000000017                                                                                                                               
422037080  0000000000000000000693CARLOS MONZON COSTA                                                                                                                                                                                                      
423037080  0000000000000000000693                                                                                                                                                                                                                         
424037080  0000000000000000000693                           CUOTA 2024-03                                                                                                                                                                                 
421037080  00000000000000000007810170079440000079047944000000003516280      CUOTA 2024-03         20240307  000000000000018                                                                                                                               
422037080  0000000000000000000781BIANCA YOSELIN VELOZO                                                                                                                                                                                                    
423037080  0000000000000000000781                                                                                                                                                                                                                         
424037080  0000000000000000000781                           CUOTA 2024-03                                                                                                                                                                                 
421037080  00000000000000000008030170079440000079078926000000003516280      CUOTA 2024-03         20240307  000000000000021                                                                                                                               
422037080  0000000000000000000803FRANCESCA GIOVANNA MONTI                                                                                                                                                                                                 
423037080  0000000000000000000803                                                                                                                                                                                                                         
424037080  0000000000000000000803                           CUOTA 2024-03                                                                                                                                                                                 
421037080  00000000000000000008030170079440000079078926000000003516280      CUOTA 2024-03         20240307  000000000000020                                                                                                                               
422037080  0000000000000000000803GIULIANO TOMAS MONTI                                                                                                                                                                                                     
423037080  0000000000000000000803                                                                                                                                                                                                                         
424037080  0000000000000000000803                           CUOTA 2024-03                                                                                                                                                                                 
421037080  00000000000000000008030170079440000079078926000000003445300      CUOTA 2024-03         20240307  000000000000019                                                                                                                               
422037080  0000000000000000000803.aterine  monti                                                                                                                                                                                                          
423037080  0000000000000000000803                                                                                                                                                                                                                         
424037080  0000000000000000000803                           CUOTA 2024-03                                                                                                                                                                                 
421037080  00000000000000000008620170079440000079278012000000003516280      CUOTA 2024-03         20240307  000000000000023                                                                                                                               
422037080  0000000000000000000862CONSTANZA MARINZALDA                                                                                                                                                                                                     
423037080  0000000000000000000862                                                                                                                                                                                                                         
424037080  0000000000000000000862                           CUOTA 2024-03                                                                                                                                                                                 
421037080  00000000000000000008620170079440000079278012000000003445300      CUOTA 2024-03         20240307  000000000000022                                                                                                                               
422037080  0000000000000000000862MARIA PAZ MARINZALDA                                                                                                                                                                                                     
423037080  0000000000000000000862                                                                                                                                                                                                                         
424037080  0000000000000000000862                           CUOTA 2024-03                                                                                                                                                                                 
421037080  00000000000000000007880170079444000071577258000000003516280      CUOTA 2024-03         20240307  000000000000024                                                                                                                               
422037080  0000000000000000000788EZEQUIEL  CAMINOS MEDINA                                                                                                                                                                                                 
423037080  0000000000000000000788                                                                                                                                                                                                                         
424037080  0000000000000000000788                           CUOTA 2024-03                                                                                                                                                                                 
491037080000000042551539000000120000000050                                                                                                                                                                                                                
